:020000040800F2
:10000000E8D30020A103000893690008894800088C
:1000100091690008F70600081D9100080000000023
:10002000000000000000000000000000E1020008E5
:10003000E5090008000000003D0300081D700008ED
:10004000BB030008BB030008BB030008BB03000898
:10005000BB030008BB030008BB030008BB03000888
:10006000BB030008BB030008BB0300086D070008C2
:1000700079070008BB030008BB030008BB030008A6
:10008000BB030008BB030008BB030008BB03000858
:10009000BB030008BB030008BB030008BB03000848
:1000A000BB03000895710008BB030008BB030008F0
:1000B000BB030008BB030008BB030008BB03000828
:1000C000BB030008BB030008BB030008BB03000818
:1000D000D96E0008BB030008BB030008BB0300087F
:1000E000E7090008BB03000800000000BB0300088C
:1000F000BB030008BB030008BB030008BB030008E8
:10010000BB030008BB030008BB030008BB030008D7
:10011000BB030008BB030008BB030008BB030008C7
:10012000BB030008BB030008BB030008BB030008B7
:10013000BB030008BB030008BB030008BB030008A7
:1001400000000000000000000000000000000000AF
:10015000BB030008BB030008BB030008BB03000887
:10016000BB030008BB030008BB030008BB03000877
:10017000BB03000895690008BB03000800000000ED
:10018000BB030008BB030008BB030008BB03000857
:10019000BB030008BB030008BB030008BB03000847
:1001A000BB030008BB030008BB03000800000000FD
:1001B000BB030008BB030008BB030008BB03000827
:1001C000BB030008BB0300080000000000000000A3
:1001D0000000000000000000BB0300080000000059
:1001E000000000000000000000000000000000000F
:1001F0000000000000000000BB030008BB03000873
:10020000BB030008BB03000800000000BB0300089C
:10021000BB030008BB030008BB030008BB030008C6
:10022000BB03000800000000BB0300080000000042
:10023000BB030008BB03000800000000BB0300086C
:10024000BB030008BB030008BB030008BB03000896
:10025000BB030008BB030008BB030008BB03000886
:10026000BB030008BB030008BB030008BB03000876
:10027000BB030008BB030008BB030008000000002C
:10028000BB030008BB030008BB030008BB03000856
:1002900000000000BB030008BB03000800000000D2
:1002A00000000000BB030008BB030008BB030008FC
:1002B000BB030008BB030008BB030008BB03000826
:1002C000BB030008BB030008BB030008DFF80CD029
:1002D00000F09CF800480047E1A10008E8D30020A6
:1002E0002C4B19680868B0E8F04F80F30988BFF319
:1002F0006F8F4FF0000080F31188704700000000FE
:1003000008480068006880F308884FF0000080F318
:10031000148862B661B6BFF34F8FBFF36F8F00DFF3
:1003200000BF00BF08ED00E0DFF80C00016841F4F9
:1003300070010160704700BF88ED00E0EFF30980B5
:10034000BFF36F8F134B1A681EF0100F08BF20ED1C
:10035000108A20E9F04F106009B44FF0500080F38C
:100360001188BFF34F8FBFF36F8F0AF013FF4FF069
:10037000000080F3118809BC19680868B0E8F04FE4
:100380001EF0100F08BFB0EC108A80F30988BFF38D
:100390006F8F704700000020EFF30580704700006A
:1003A0000648804706480047FEE7FEE7FEE7FEE70F
:1003B000FEE7FEE7FEE7FEE7FEE7FEE7D570000892
:1003C000CD02000840EA01039B0703D009E008C9F9
:1003D000121F08C0042AFAD203E011F8013B00F80A
:1003E000013B521EF9D27047D2B201E000F8012B56
:1003F000491EFBD270470022F6E710B513460A46A5
:1004000004461946FFF7F0FF204610BD064C074D85
:1004100006E0E06840F0010394E8070098471034D4
:10042000AC42F6D3FFF756FF00C8000820C800080A
:1004300070B58C1810F8015B15F0070301D110F8A6
:10044000013B2A1106D110F8012B03E010F8016BD3
:1004500001F8016B5B1EF9D12B0705D40023521E56
:100460000DD401F8013BFAE710F8013BCB1A921CBE
:1004700003E013F8015B01F8015B521EF9D5A142BC
:10048000D8D3002070BD000001220248114601F0BF
:100490008BBA00000008025800220248012101F036
:1004A00083BA000000080258704700000122024889
:1004B000082101F079BA0000000802580022024821
:1004C000082101F071BA000000080258704730B5E9
:1004D0004FF47A75044602E0284600F004F8601EE6
:1004E00084B2F9D230BD4FF0E02370B55D69C0EB46
:1004F000001099694401002298698842FCD002D218
:10050000A1EB000102E0A5EB000631440A440146DC
:10051000A242F1D370BD10B5FFF7C6FFFFF7D6FFBB
:1005200009F058FD044609F0DDFD204310BD000030
:100530002DE9FC410746164600200D46009001902B
:10054000FFF7AAFF922000F0BDF8062269461220AC
:1005500000F09AF8FFF798FF9DF801009DF8001051
:10056000484C000200B2084300EE100AD4ED000A25
:10057000B8EEC00A20EE200A85ED000A9DF80300BF
:100580009DF80210D4ED000A000200B2084300EE0C
:10059000100AB8EEC00A20EE200A85ED010A9DF887
:1005A00005009DF80410000200B2084300EE100A96
:1005B000B8EEC00A20EE200A85ED020AFFF77EFFA2
:1005C00008226946002000F05FF8FFF76FFF9DF8F2
:1005D00000000F2830D19DF803009DF80210D4EDE3
:1005E000010A000200B2084300EE100AB8EEC00A89
:1005F00020EE200A87ED000A9DF805009DF8041002
:10060000D4ED010A000200B2084300EE100AB8EE71
:10061000C00A20EE200A87ED010A9DF807009DF828
:100620000610000200B2084300EE100AB8EEC00A3D
:1006300020EE200A87ED020AFFF72EFFA22000F02D
:1006400041F802226946222000F01EF8FFF71CFF45
:100650009DF800109DF80100C90041EA5010B0F566
:10066000806F01DBA0F5006000EE100AB4EE001A06
:10067000F3EE070AB8EEC00A40EE010AC6ED000A22
:10068000BDE8FC819400002070B540F08000144665
:100690000D4600F017F806E0552000F013F8641E30
:1006A00005F8010BE4B2002CF6D170BD10B540F096
:1006B00080000C4600F006F8552000F003F820708A
:1006C00010BD000001B582B04FF47A700123009094
:1006D00001AA034802A903F0D7FB9DF804000EBD50
:1006E0006095002010B50C46FFF7ECFF2046BDE8F2
:1006F0001040FFF7E7BFFEE700207047002070477B
:1007000005490022054810B507F046F90449034899
:1007100007F035F9002010BDB8A40020DC970020B8
:10072000B89C00200146044810B507F028F902489B
:1007300007F0FEF8002010BDDC9700200020704775
:10074000094A10B5D2F8BC22D2F814220AB101200D
:1007500010BD0A460146044807F01EF9BDE81040E6
:10076000014807F08FB90000DC970020014800F035
:100770009BBA0000E8950020014800F095BA0000FF
:1007800060960020294A016891423AD0274A1832DF
:10079000914236D0254A3032914232D0234A4832F3
:1007A00091422ED0214A603291422AD01F4A78329B
:1007B000914226D01D4A9032914222D01B4AA83243
:1007C00091421ED01A4A91421BD0194A18329142C6
:1007D00017D0174A3032914213D0154A483291420D
:1007E0000FD0134A603291420BD0114A78329142B5
:1007F00007D00F4A9032914203D00D4AA83291425D
:1008000011D1CAB21823103AB2FBF3F26FF3090107
:10081000032A02F00703074AD25CC26500D9091D0A
:1008200081650846704721F0FF01F9E7100002409A
:1008300010040240B0BD000830B5224A012301680F
:100840009142CAB21BD01F4C1434A14217D01D4C88
:100850002834A14213D01B4C3C34A1420FD0194C78
:100860005034A1420BD0174C6434A14207D0154C30
:100870007834A14203D0134C8C34A1420CD1142102
:10088000114C083AB2FBF1F10F4A803201F01F051A
:1008900004EB8101AB4010E00C4D1824103A0D44DC
:1008A000B2FBF4F1A82D00D80831094A01F01F0469
:1008B00002EB8101064AA3408032603080E80E00DE
:1008C00030BD00000854025800580258F0FBFDBF2C
:1008D0000008024010B50279531E072B2DD8174C83
:1008E0000168A1421BD0154C1434A14217D0134CFF
:1008F0002834A14213D0114C3C34A1420FD00F4CEC
:100900005034A1420BD00D4C6434A14207D00B4CA3
:100910007834A14203D0094C8C34A14203D1084958
:10092000074C443102E00749064C443104EB820293
:10093000C0E91B2101219940416710BD08540258AC
:10094000FC580258FC08024010B583694FF0C0748F
:10095000826A0146002053B1B3F5005F15D072B131
:10096000012A0CD0022A0AD0032A09D104E01AB1C4
:10097000012A06D0022A03D1C96AC90100D5012083
:1009800010BDC96AA142FAD010BD002AF7D0012AD1
:10099000F2D0022AF3D0032AF3D010BD0D49002370
:1009A00070B50D4A0C6850430C4A44F080740C60DA
:1009B000536011684FF47A74074DB0FBF4F4B0FB48
:1009C000F5F541F0010606491660CB6081E831007B
:1009D00070BD0000FCED00E040420F00001000E0A0
:1009E0005801002070474FF4806010B500F0C1FE40
:1009F000BDE810404FF4805000F0BBBE72B6FEE779
:100A0000014890ED690A7047E84B0020014890EDDD
:100A1000680A7047E84B0020014890ED6A0A704769
:100A2000E84B00202DE9F05F28B190F8351002293D
:100A300004D0802141650120BDE8F09F904C904B8F
:100A40000168183C18338E4ADFF83C92A1428D4C65
:100A5000DFF838E28E4FDFF83CB2DFF83CA28F4D72
:100A60008F4E31D091422FD099422DD0A1422BD020
:100A7000494529D0714527D0B94225D0DFF810C2A9
:100A80000CF1180C61451FD0DFF808C2ACF1600C06
:100A9000614519D0DFF8FCC1ACF1480C614513D0B9
:100AA000DFF8F0C1ACF1300C61450DD0DFF8E4C1E6
:100AB000ACF1180C614507D0594505D0514503D01C
:100AC000A94201D0B1422CD1DFF8B4C14FF00408E3
:100AD00080F83580ACF1180C61451DD091421BD0D7
:100AE000994219D0A14217D0494515D0714513D06C
:100AF000B94211D06648183081420DD0654860383F
:100B0000814209D063484838814205D06148303875
:100B1000814201D05F481838086820F00100086061
:100B2000ABE0D1F800C02CF00E08DFF854C1C1F8DA
:100B30000080ACF1180C0168614527D0914225D0A6
:100B4000994223D0A14221D049451FD071451DD0E3
:100B5000B9421BD0DFF838C10CF1180C614515D033
:100B6000DFF830C1ACF1600C61450FD0DFF824C173
:100B7000ACF1480C614509D0DFF818C1ACF1300C7C
:100B8000614503D0DFF80CC1ACF1180CD1F800C0FE
:100B90002CF0010CC1F800C0DFF8E4804FF0010C2C
:100BA0000168A8F11808414546D0914244D09942C5
:100BB00042D0A14240D049453ED071453CD0B942D7
:100BC0003AD0334A1832914236D0324A603A914292
:100BD00032D0304A483A91422ED02E4A303A914291
:100BE0002AD02C4A183A914226D0594524D0514552
:100BF00022D0A94220D0B1421ED02A4A91421BD015
:100C0000284A1432914217D0264A2832914213D0F2
:100C1000244A3C3291420FD0224A503291420BD0AA
:100C2000204A6432914207D01E4A7832914203D062
:100C30001C4A8C32914218D1016E0A6822F48072EB
:100C40000A6090F85C20816D02F01F020CFA02F23B
:100C50004A60D0E919124A60C16E31B10A6822F4C3
:100C600080720A60D0E91C124A600022016D80F88F
:100C700035C080F8342001B188470020DCE6000050
:100C800028000240580002407000024088000240E4
:100C9000A00002407004024088040240A004024008
:100CA000B8040240085402582DE9FC5F0446F74E90
:100CB0000020DFF8D88300904FF41652F44808F172
:100CC0001808A56DDFF8C493DFF8C0A3016809F127
:100CD000300920680AF1480AB1FBF2F1B0420191F3
:100CE0002F68D5F800C0DFF8ACB335D04146884254
:100CF00032D0484530D050452ED058452CD0E5490B
:100D00001831884228D0E3493031884224D0E14963
:100D10004831884220D0E04988421DD0DE49183150
:100D2000884219D0DC493031884215D0DA4948313F
:100D3000884211D0DFF860E30EF1600E70450BD0F1
:100D4000D54A7832904207D0D34B9033984203D0A3
:100D5000D149A83188427DD194F85C20082102F065
:100D60001F0201FA02F23A424AD0B04232D0404564
:100D700030D048452ED050452CD058452AD0C54AB1
:100D80001832904226D0C34A3032904222D0C14A13
:100D9000483290421ED0C04A90421BD0BE4A183200
:100DA000904217D0BC4A3032904213D0BA4A4832EF
:100DB00090420FD0B84A603290420BD0B64A783297
:100DC000904207D0B44A9032904203D0B24AA8323F
:100DD000904203D1026802F0040202E0026802F0CD
:100DE00008026AB1026822F00402026094F85C0012
:100DF00000F01F008140A960606D40F00100606557
:100E000094F85C00012100F01F008140394240D07D
:100E10002068B04234D0404532D0484530D05045AB
:100E20002ED058452CD09B4A1832904228D0994A4F
:100E30003032904224D0974A4832904220D0964A8D
:100E400090421DD0944A1832904219D0924A3032C2
:100E5000904200E0AFE113D08F4A483290420FD069
:100E60008D4A603290420BD08B4A7832904207D044
:100E7000894A9032904203D0874AA83290427DD16D
:100E8000406910F0800F04D0A960606D40F002004E
:100E9000606594F85C00042100F01F008140394235
:100EA0003ED02068B04232D0404530D048452ED0A8
:100EB00050452CD058452AD0764A1832904226D038
:100EC000744A3032904222D0724A483290421ED048
:100ED000714A90421BD0704A1832904217D06E4A25
:100EE0003032904213D06C4A483290420FD06A4A56
:100EF000603290420BD0684A7832904207D0664AFE
:100F00009032904203D0644AA83290424ED1006899
:100F100010F0020F04D0A960606D40F0040060651D
:100F200094F85C00102100F01F008140394258D035
:100F30002068B04234D0404532D0484530D050458A
:100F40002ED058452CD0534A1832904228D0514ABE
:100F50003032904224D04F4A4832904220D04E4AFC
:100F600090421DD04C4A1832904219D04A4A303231
:100F7000904215D0484A4832904200E014E00FD029
:100F8000454A603290420BD0434A7832904207D0B3
:100F9000414A9032904203D03F4AA832904207D152
:100FA000006800F0080006E0006872E70068B7E734
:100FB000006800F00400A0B1A9602068016849033E
:100FC00004D50068000308D5A16C07E00168C905D5
:100FD00003D4016821F008010160216C09B12046A9
:100FE000884794F85C00202100F01F0081403942BE
:100FF00079D02068B04232D0404530D048452ED01C
:1010000050452CD058452AD0224A1832904226D03A
:10101000204A3032904222D01E4A483290421ED09E
:101020001D4A90421BD01C4A1832904217D01A4ACF
:101030003032904213D0184A483290420FD0164AAC
:10104000603290420BD0144A7832904207D0124A54
:101050009032904203D0104AA832904203D10068E7
:1010600000F0100002E0006800F00200B0B3A960D8
:1010700094F835000428206801680FD049037ED514
:10108000006800032BD4616C2AE0000010000240CD
:101090008C000020700002401004024021F0160174
:1010A00001602068416921F080014161206C08B92C
:1010B000A06C20B12068016821F00801016094F85B
:1010C0005C303F21012003F01F0300229940A960FA
:1010D00084F8350084F83420216D65E003E0E16B8D
:1010E00009B120468847606D00287DD0606DC0073B
:1010F00059D02068042184F83510B0422BD04045E7
:1011000029D0484527D0504525D0584523D09D4962
:10111000884220D09B49183188421CD099493031EF
:10112000884218D09849884215D09749183188428A
:1011300011D09549303188420DD0934948318842C9
:1011400009D091496031884205D08F497831884271
:1011500001D08D499031016821F0010101602068C2
:101160000099019A491C0091914202D80168C9076F
:10117000F6D10068C00710D003200FE0FFE7016838
:10118000C905ACD403680121002223F010030360D9
:1011900084F8351084F83420A1E7012084F8350064
:1011A000002084F83400E16C00291DD002B02046F4
:1011B000BDE8F05F0847754988421DD07349143176
:1011C000884219D071492831884215D06F493C3185
:1011D000884211D06D49503188420DD06B4964313D
:1011E000884209D0694900E084E07831884203D020
:1011F00066498C3188427DD194F85C80042701686F
:1012000008F01F0807FA08F717EA0C0F009746D0F6
:101210004F0744D500980F04686003D5C8033CD439
:10122000A16CC1E7880638D42068B0422DD055495A
:101230006039884229D0484527D0504525D05845A7
:1012400023D05049884220D04E49183188421CD0C2
:101250004C493031884218D04B49884215D04A4910
:101260001831884211D04849303188420DD0464962
:101270004831884209D0704507D0904205D0984245
:1012800003D04149A831884203D1016821F0080107
:1012900002E0016821F004010160216C84E702276B
:1012A00007FA08F717EA0C0F00974ED08F074CD5B6
:1012B00000980F04686003D5C80344D4616C73E7D9
:1012C000880640D42068B0422FD02E496039884229
:1012D0002BD0484529D0504527D0584525D02949FD
:1012E000884222D02749183188421ED02549303102
:1012F000884200E044E018D02349884215D02249B2
:101300001831884211D02049303188420DD01E4911
:101310004831884209D0704507D0904205D09842A4
:1013200003D01949A831884203D1016821F0140182
:1013300002E0016821F00A010160012184F8351002
:10134000002084F83400E16B2EE7082202FA08F24C
:1013500012EA0C0F14D0090712D5016821F00E0112
:10136000016094F85C100120002201F01F0100FAD6
:1013700001F16960606584F8350084F8342012E773
:10138000BDE8FC9F88000240100402400854025847
:101390002DE9F05F044600F00DFB002C07467DD0E0
:1013A000E24E022120684FF00308DFF884934FF0EB
:1013B0000005DFF880A3B042DFF87CB334D0DB4A0D
:1013C0001832904230D048452ED050452CD0584548
:1013D0002AD0D94A1832904226D0D74A3032904289
:1013E00022D0D54A483290421ED0D44A90421BD0D7
:1013F000D24A1832904217D0D04A3032904213D09D
:10140000CE4A483290420FD0CC4A603290420BD044
:10141000CA4A7832904207D0C84A9032904203D0EC
:10142000C64AA83290427DD184F83510B04284F883
:1014300034502ED0BD49183188422AD0484528D092
:10144000504526D0584524D0BB491831884220D079
:10145000B949303188421CD0B7494831884218D048
:10146000B649884215D0B5491831884211D0B349E0
:10147000303188420DD0B1494831884209D0AF4956
:101480006031884205D0AD497831884201D0AB49FE
:101490009031016821F00101016008E025E100BF01
:1014A00000F088FAC01B052801D920211AE1206824
:1014B0000068C007F4D1D4E902032168103418434E
:1014C0008E4694E88410D4E9033809683A431043FF
:1014D0009B4A40EA0C00676918431140103C40EAFF
:1014E0000800042F40EA010003D1D4E90B12114394
:1014F00008436168A1F12902052A0BD9163A032A8B
:1015000008D9083A012A05D9083A032A02D97439B8
:10151000032901D840F48010CEF800002068676AE3
:10152000406900E020E0042F20F0070047EA0007B0
:101530000DD1D4E90A01074349B12046FFF704FA67
:1015400028B140206065012184F83510CDE0206885
:1015500047612046FFF716F994F85C203F2102F01E
:101560001F029140816055E0764A90421BD0754B36
:101570001433984217D0734B2833984213D0714BD1
:101580003C3398420FD06F4B503398420BD06D4B89
:101590006433984207D06B4B7833984203D0694B41
:1015A0008C3398427ED184F8351084F83450664BE1
:1015B0000168A26801EA030E402A74D0802A73D021
:1015C0005FF00002D4E90378D4E9053142EAD7029A
:1015D00042EAD8085B4AD4E9077C48EAD30848EADB
:1015E000D10141EAD701524241EA1C11142341EAD8
:1015F0000E01016020681044B0FBF3F08000E0654C
:101600002046FFF7BFF894F85C20012102F01F028A
:10161000914041602068B04257D044491831884217
:1016200053D0484551D050454FD058454DD04249F0
:101630001831884249D040493031884245D03E492E
:101640004831884241D03D4988423ED03B4918311B
:1016500088423AD039493031884236D0374948310A
:10166000884232D03549603188422ED033497831B2
:1016700088422AD031499031884226D02F49A8315A
:10168000884222D02F4988421FD02E4914318842E7
:101690001BD02C492831884217D02A493C31884236
:1016A00013D002E01DE017E018E0264950318842CF
:1016B0000BD024496431884207D0224978318842CE
:1016C00003D020498C31884229D12046FFF7B4F855
:1016D000A06880280CD00CE0102273E74FF4804201
:1016E00070E74021616584F835800120BDE8F09FF6
:1016F0006560216E20790860D4E919014160606855
:10170000401E072808D82046FFF7E4F8E06E056081
:10171000D4E91C01416002E0E566256765670120A8
:10172000656584F835000020E0E700001000024005
:101730004000024058000240700002401004024085
:101740003F8010FE085402580F00FEFF70B504469B
:1017500000F030F90546601C02D0044800780444CB
:1017600000F028F9401BA042FAD370BD8000002091
:1017700070474FF0B04110B5D1F88820024203D035
:10178000C1F88800FFF7F4FF10BD00002DE9F84F05
:1017900003247A4D00234FF001094FF0B04B4FF076
:1017A0000F0AE4E009FA03F6324078D00F7907F027
:1017B0000307012F01D0022F1AD187684FEA430E89
:1017C000D1F80CC004FA0EF827EA08070CFA0EFC50
:1017D0004CEA070CC0F808C0476891F804C0B7434A
:1017E000CCF3001C0CFA03FC4CEA070CC0F804C054
:1017F0000E79F643B6070BD0C6684FEA43088F68E8
:1018000004FA08FC26EA0C0607FA08F73743C76013
:101810000E7906F00306022E12D1DE080F694FEA98
:10182000437C00EB8606B646366A4FEADC6C0AFA61
:101830000CF807FA0CF726EA08063743CEF82070B2
:101840000F7906684FEA430807F0030704FA08FC1B
:1018500007FA08F726EA0C06374307604E6816F4C5
:10186000403F1CD0464E376847F002073760366865
:101870009F0706F00206009623F0030606F1B04625
:10188000B6463F0FD6F80864DFF8F8800AFA07FC7E
:10189000404526EA0C0603D14FF0000C3AE065E023
:1018A000DFF8E4C0604502D14FF0010C32E0DFF810
:1018B000DCC0604502D14FF0020C2BE0DFF8D0C055
:1018C000604502D14FF0030C24E0DFF8C8C060454A
:1018D00002D14FF0040C1DE0DFF8BCC0604502D11E
:1018E0004FF0050C16E0DFF8B4C0604502D14FF0B0
:1018F000060C0FE0DFF8A8C0604502D14FF0070CDE
:1019000008E0DFF8A0C0604502D14FF0090C01E00B
:101910004FF00A0C0CFA07FC4CEA060CCEF808C48F
:101920004F68DBF80060FF0226EA020600D5164386
:101930005F46CBF80060D1F804C0DBF804605FEAD2
:101940008C2C26EA020600D516437E606E684F682E
:1019500026EA0206BF0300D516436E602E684F6864
:1019600026EA0206FF0300D516432E605B1C0A68B8
:1019700032FA03F67FF416AFBDE8F88F8000005806
:10198000F4440258000002580004025800080258AB
:10199000000C025800100258001402580018025897
:1019A000001C0258002402580AB1816170470904E2
:1019B000FBE70000014880687047000080000020BD
:1019C00002488168027811448160704780000020DD
:1019D000032010B500F0FAF801F0C0FC0F4A1049DE
:1019E00014681368C4F3032203F00F038A5CC95C14
:1019F00002F01F0201F01F01D0400A4A20FA01F153
:101A00001160094908600F2000F010F808B10120AA
:101A100010BD00F09BF8002010BD000018440258D3
:101A2000B8BD0008900000208C00002010B51028E0
:101A300004468AB02AD200220146192000F0A6F8F6
:101A4000192000F095F8154804601548016841F028
:101A500001010160006808A900F0010009906846D2
:101A600001F01AFC01F068FC0E49400000220E4C07
:101A7000B0FBF1F10D4840F2E7330460C0E90332F6
:101A8000491EC0E9011202F093FB10B101200AB017
:101A900010BD064802F0BEFBF9E7000084000020FC
:101AA000F044025840420F000000014024970020FB
:101AB000F0B5154C4378211D0A1D23600378F3B15E
:101AC00043680B60057BC67A817A437B2D07847B54
:101AD00045EA0665C77B90F809C0067A90F800E0F1
:101AE00045EAC14040EA834040EA444040EA0740BA
:101AF00040EA0C2040EA460040EA0E0001E00020E7
:101B000008601060F0BD000098ED00E0BFF35F8F4B
:101B1000044800210368034A23F4803303607032D1
:101B20001160704724ED00E0074A40F001000649CB
:101B300070321060086840F480300860BFF34F8F47
:101B4000BFF36F8F7047000024ED00E0074882B0BC
:101B5000016841F002010160006800220F2100F0DD
:101B600002000090901E02B000F010B8F444025839
:101B7000002809DB410900F01F028900012001F162
:101B8000E0219040C1F80001704700000E4BF0B416
:101B90001B680D46C3F30223C3F10706042E00D9C8
:101BA0000426191D072901D2002300E0DB1E0124B1
:101BB00004FA06F19C40491E2940641E99401440D5
:101BC0002143F0BC07F0BEBA0CED00E0064900F07E
:101BD000070210B54FF6FF040868044B204040EAA6
:101BE00002201843086010BD0CED00E00000FA056B
:101BF00001680123C0F80035002280F8F4248869C8
:101C0000044A40F000608861486D10434865002038
:101C10007047000003000010704700684162002018
:101C20007047F0B503685D6A39B19F6A4C1E0020A9
:101C30004FF4827605EB17450BE045EA02409862C7
:101C400010E0471C06EB800053F800C0F8B205EB2B
:101C50001C45A042F5D34FF4807000EB810045EAAB
:101C600002421A500020F0BDD0F8080506F09FB9D6
:101C700001EBC10200EB8202D0F80805926C06F07D
:101C8000F2B801EBC10200EB8202D0F80805D2F8ED
:101C9000882206F044B9D0F8080506F08AB90A0689
:101CA00001F00F0101EBC10100EB810101D53C31D5
:101CB00001E001F51F71006807F076B801F00F022E
:101CC0000B0670B502EBC20104464FF001004FF065
:101CD000000504EB810103D581F83D003C3103E0B0
:101CE00081F87D5201F51F710A7094F8BC24012A15
:101CF00008D084F8BC04206806F072FD002084F847
:101D0000BC5470BD022070BD70B54268044601F03D
:101D10000F00904201D9012070BD01F00F024FF079
:101D200000050B0602EBC2014FF0010204EB81013A
:101D300003D581F83D203C3103E081F87D5201F567
:101D40001F718D70087094F8BC04012808D084F8C5
:101D5000BC24206806F0B4FE002084F8BC5470BD9A
:101D6000022070BD01F00F0101EBC10100EB810009
:101D7000D0F8900270472DE9F04101F00F060446BB
:101D80000D064FF0010006EBC6014FF0000504EB15
:101D9000810103D581F83D003C3103E081F87D529B
:101DA00001F51F714F788A600B710E7007B14E8379
:101DB000022B00D14D7194F8BC24012A09D084F87B
:101DC000BC04206806F05AFC284684F8BC54BDE8E0
:101DD000F0810220FBE770B501F00F05002405EB50
:101DE000C50100EB810101F5227181E81C0001F8B9
:101DF0000B4C01F80C5DC368012B00D1CA61027B5A
:101E0000006806F0B5FE002070BD70B50D46416853
:101E1000044605F00F00884201D9012070BD290653
:101E20004FF000064FF0010207D500EBC00104EBB4
:101E3000810181F83D203C3107E005EBC50104EB51
:101E4000810181F87D6201F51F718A70087094F834
:101E5000BC04012807D084F8BC24206806F05CFE8E
:101E6000280702D007E0022070BD217B04F2C442A3
:101E7000206806F0F9FD002084F8BC6470BD70B5E0
:101E800001F00F04002504EBC401012600EB8101E1
:101E9000483181E82C0001F80B6C01F80C4DC36847
:101EA000012B00D1CA61027B006806F061FE0020B0
:101EB00070BD00002DE9FC5F05680446284607F068
:101EC00014F800287ED1206807F03BF8002879D06C
:101ED000D5F80808C0F30D20C4F8FC04206807F00A
:101EE00030F8800704D52068416901F002014161A2
:101EF000206807F026F8C10604F2C440009034D5EB
:101F00002068816921F0100181612F6A07F00F01BB
:101F1000C7F3434001EBC101022804EB810606F53B
:101F20001F7602D0062811D01AE047F6F07007425B
:101F300016D0C7F30A12F1681746284607F005F8CD
:101F4000F16870693944F160384408E0009908226A
:101F5000284606F0FAFF7069C7F30A110844706159
:101F60002068816941F010018161206806F0E9FF75
:101F700000034FF0000A4FF0020B4FF001097CD52F
:101F80002068002606F0BCFF074674E0F80770D012
:101F90002068F1B206F0CDFF8046C00707D005EB00
:101FA0004611C1F8089B3146204604F0F9FC5FEA6F
:101FB000087025D505EB46110820C1F8080BFC492F
:101FC000206800E042E2026C00EB461001928A4277
:101FD000D0F8081B05D9090403D54FF40041C0F817
:101FE000081B204600F01AFBF1490198884207D9E6
:101FF000E068012804D120680121009A06F034FD30
:102000005FEAC86004D505EB46111020C1F8080B43
:102010005FEA88701CD56869000605D5D5F8040804
:1020200040F48061C5F8041806EBC60004EB80009C
:1020300090F87F1200F51F70012905D180F803A0E8
:102040002046F1B200F008FA05EB4611C1F808BBD2
:102050005FEA886004D505EB46112020C1F8080B23
:102060005FEA884005D505EB46114FF40050C1F8F2
:10207000080B7F08761C002F88D1206806F061FFCE
:1020800040036FD5206806F034FF0026074667E05E
:10209000F80763D02068F1B206F039FF8046C00728
:1020A00023D0D5F8342806F00F0C05EB461309FAB7
:1020B0000CF08243C5F83428C3F80899E068012879
:1020C0000FD106EBC60004EB8000D0E911121144D9
:1020D000816436B9E06C20B920680121009A06F0CD
:1020E000C3FC2046F1B2FFF7C3FD5FEA087004D5D8
:1020F00005EB46110820C1F808095FEAC86004D55D
:1021000005EB46111020C1F808095FEA486004D5C4
:1021100005EB46114020C1F808095FEA887016D522
:102120003146284606F0B4FE06EBC60004EB8000FC
:1021300090F83F103C30012905D180F803A02046DB
:10214000F1B200F085F905EB4611C1F808B95FEA74
:10215000086003D53146204604F088FC7F08761CD1
:10216000002F95D1206806F0ECFE002811DAD5F892
:10217000040820F00101C5F8041894F8F4040128BB
:102180003BD0204600F02EFA2068416901F0004162
:102190004161206806F0D5FE00050BD5D5F808088A
:1021A000C00702D0204600F061FA2068416901F4BE
:1021B00000614161206806F0C4FE00010AD5206874
:1021C000416901F00061416194F8F404E0B12046F6
:1021D00000F04CFA206806F0B4FEC00472D5D5F8C1
:1021E000040820F00101C5F804182068102106F049
:1021F0004FFE00214FF67F322DE00021204684F86B
:10220000F4A4FFF709FDBFE784F8F4942068406D5B
:102210000121C0F38300C4F8F8042046FFF7FCFC5A
:10222000D8E700BF05EB4110C0F80829D0F8003905
:1022300023F40013C0F80039C0F8082BD0F8003B95
:1022400023F40013C0F8003BD0F8003B43F00063D8
:10225000C0F8003B491C60688842E3D8D5F81C08E8
:1022600040F00111C5F81C18206B68B1D5F884083E
:1022700040F00B01C5F88418D5F8440840F00B0174
:102280002846C5F844180DE0D5F8140842F22B0191
:102290000843C5F81408D5F8100840F00B0128468B
:1022A000C5F81018D0F8000820F4FE61C5F8001831
:1022B000217B2068009A06F0D7FB2068416901F471
:1022C00080514161206806F03CFE800417D52068EB
:1022D00006F014FA206806F0FBFD206101F00AF810
:1022E000217C2368CAB20146184606F08FFE2046BC
:1022F00000F062F92068416901F4005141612068F1
:1023000006F01FFE000707D5204600F06FF9206891
:10231000416901F008014161206806F012FE0006E3
:1023200016D5A869012620F08001A9610DE000BF43
:1023300006EBC60004EB800090F87F02012803D171
:102340002046F1B2FFF7ABFC761C6068B042EFD8D4
:10235000206806F0F6FDC00221D501264F4616E0A2
:1023600006EBC60105EB461004EB8101D0F800092D
:1023700091F84020012A09D1002807DAF0B281F84B
:102380003F7040F080012046FFF789FC761C6068B2
:10239000B042E5D82068416901F4801141612068AC
:1023A00006F0CFFD800234D501204B4629E0000025
:1023B0000A30544F00EBC00205EB401104EB8202DF
:1023C000D1F8001B92F88062012E19D1002917DA8A
:1023D00094F8FC6401F4803106F00106B1420FD19B
:1023E00082F87F32A96941F08002AA616969090611
:1023F00006D4D5F8040840F40070C5F8040803E0DA
:10240000401C61688142D5D82068416901F40011FF
:102410004161206806F095FD400007D52046FFF792
:1024200023FC2068416901F080414161206806F089
:1024300088FD40070AD520684568680702D5204610
:10244000FFF729FC2068416829434160BDE8FC9FF3
:10245000D0F8080505F006BED0F8080505F016BE50
:102460002DE9F04104008AB005D094F8BD040025A0
:10247000266820B108E001200AB0BDE8F0812046BE
:1024800084F8BC5400F066F8032084F8BD04F06BB7
:10249000C00500D4E560206806F0E0FA04F1100100
:1024A000684628228846FDF78DFF94E80F0006F065
:1024B00033F90227D8BB2068002106F066FD002012
:1024C000012610E000EBC001421C04EB810181F801
:1024D0003D6081F840504D648D64CD6481F83C00CE
:1024E000A1F85600D0B261688142EBD8002011E01B
:1024F00000EBC001421C04EB810181F87D5281F8A0
:102500008052C1F88452C1F88852C1F88C5281F8C7
:102510007C02D0B261688142EAD8282241466846EE
:10252000FDF750FF94E80F0006F0DCF910B184F8D5
:10253000BD74A0E7606A84F8385084F8BD6401284F
:1025400002D12046FFF754FB206806F0BDF90020B9
:1025500092E7000010B5B0B00446B8216846FDF718
:102560004AFF13492068884220D100204FF480217F
:102570004FF440122192CDE90010684600F0C0F8F7
:1025800008B1FEF73BFA00F0B3F80A48016841F0E1
:102590000071016000680022052100F000702E909B
:1025A0004D20FFF7F3FA4D20FFF7E2FA30B010BDEF
:1025B00000000440D844025870B504460069012563
:1025C00070B1022801D0FEF719FAD4F8080529469F
:1025D00005F0CBFDD4F80805BDE8704005F07FBDDF
:1025E0000025F2E7D0F8080505F0A8BDD0F80805E9
:1025F00005F0AEBD10B5044690F8BC0401280BD020
:10260000012084F8381084F8BC04206806F0ECFC43
:10261000002084F8BC0410BD022010BDD0F80825AD
:1026200000F2C441104605F0ACBD10B590F8BC14E2
:1026300004460068012909D0012184F8BC14C16B4B
:10264000C90509D4A16A012902D005E0022010BD04
:10265000816B41F480318163206806F0F4FB2068CF
:1026600006F024F9002084F8BC0410BD10B504461F
:10267000D0F8080505F0C7FD2068D0F8001E41F02D
:102680000101C0F8001E206A002804D00248016839
:1026900041F00601016010BD10ED00E0134970B576
:1026A0000A68D243520705D5096801F00701814243
:1026B00013D118E00A6822F0070202430A60FFF70C
:1026C00079F90A4D4FF47A760446083D07E000BFD9
:1026D000FFF770F9001BB04201D9012070BD2868D6
:1026E000C0438004F4D4002070BD00000C480258A0
:1026F0000248016841F08071016070470C4802583F
:102700002DE9FE4F0546DFF800A450F8081B002411
:10271000FD4FC943019005F1280026460AF1240A1D
:10272000009008011DD4686E50B1B0F5801F0CD028
:10273000B0F5001F0ED0B0F5401F1ED001240FE0F1
:10274000386840F40030386017E00198022104F046
:10275000A3FA03E00098022104F02EFB04000CD041
:1027600026462888C043C00523D4A86D05281ED25C
:10277000DFE800F00C11161B1B006A6EDAF800107F
:1027800021F440111143CAF80010EAE7386840F418
:102790000030386009E00198002104F07DFA03E080
:1027A0000098002104F008FB0446C4B100E00124B5
:1027B00026462888DFF85083C04308F12C084005DE
:1027C0002FD4D5F8A400B0F5C00F28D010DCB8B1D4
:1027D000B0F5001F19D0B0F5800F0FD11AE0AA6D27
:1027E000DAF8001021F007011143CAF80010E0E701
:1027F000B0F5000F13D0B0F5200F10D001240FE07A
:10280000386840F40030386009E00198002104F095
:1028100043FA03E00098002104F0CEFA044694B194
:1028200026462888C043000530D4D5F8A800B0F16A
:10283000407F29D011DCC0B1B0F1807F1AD0B0F157
:10284000007F10D11BE0D5F8A420D8F8001021F4A7
:1028500060011143C8F80010E3E7B0F1806F13D0B6
:10286000B0F1A06F10D001240FE0386840F40030C0
:10287000386009E00198002104F00EFA03E00098A6
:10288000002104F099FA044694B126462868DFF83E
:1028900078B2C0430BF1200B80011FD4E86CD8B193
:1028A00010280FD0202812D0302815D0012414E091
:1028B000D5F8A820D8F8001021F0E0611143C8F83D
:1028C0000010E3E7386840F40030386004E0019815
:1028D000022104F0E1F9044674B126462888C04379
:1028E000C0042BD4E86DB0F5005F20D00DDCA0B1A2
:1028F000B0F5805F0FD115E0EA6CDBF8001021F035
:1029000030011143CBF80010E8E7B0F5405F13D079
:10291000B0F5804F10D001240FE0386840F400304B
:10292000386009E00198002104F0B6F903E000984E
:10293000002104F041FA04468CB126462888C043A1
:10294000800429D4286EB0F5403F23D010DC08B3B2
:10295000B0F5803F14D0B0F5003F0FD115E0EA6D1F
:10296000DAF8001021F4E0411143CAF80010E5E75D
:10297000B0F5802F0ED0B0F5A02F0BD001240AE0C7
:102980000198012104F088F903E00098012104F086
:1029900013FA044694B126462888C04340042AD43A
:1029A000D5F8AC00B0F1405F23D010DC08B3B0F133
:1029B000805F14D0B0F1005F0FD115E02A6EDAF815
:1029C000001021F4E0211143CAF80010E4E7B0F14F
:1029D000804F0ED0B0F1A04F0BD001240AE0019837
:1029E000012104F059F903E00098012104F0E4F911
:1029F000044674B126462888C04300041FD4E86EFC
:102A0000D8B1B0F1805F0ED0B0F1005F10D00124DA
:102A100014E0D5F8AC20D8F8001021F0E0411143C3
:102A2000C8F80010E7E7386840F40030386004E088
:102A30000198012104F030F9044674B12646286853
:102A4000C043C0011ED4A86CD0B101280ED002280A
:102A500011D0032814D0012413E0EA6EDAF8001034
:102A600021F040511143CAF80010E8E7386840F4FB
:102A70000030386004E00198022104F00DF90446AA
:102A80006CB126462868C043400255D41F480168EF
:102A900041F480710160FEF78DFF81460EE0AA6C63
:102AA000DBF8001021F003011143CBF80010E9E737
:102AB000FEF780FFA0EB090064283BD813480068AC
:102AC000C005F5D5BCBBDFF84090B5F8B01009F1F2
:102AD0004409D9F8000001F4407100F440708842C4
:102AE00011D0D9F80010D9F8002021F4407142F437
:102AF0008032C9F80020D9F8002022F48032C9F8C9
:102B00000020C9F8001003E02C4402580048025885
:102B1000D5F8B000B0F5807F19D1FEF74BFF0290D9
:102B200011E000BFFEF746FF0299411A41F28830DA
:102B3000814208D9032426462878DFF81494C0433C
:102B4000C00721D03CE0D9F800008007EAD5D5F8CD
:102B5000B010C1F301200328FE480DD0016821F414
:102B60007C510160B5F8B020D9F80010C2F30B0217
:102B70001143C9F80010DFE7F74A036802EA1112AF
:102B800023F47C511143ECE7A86F182816D005DC1C
:102B9000A0B1082808D0102804D10AE020280DD0C0
:102BA00028280BD001240AE00198012104F074F8D0
:102BB00003E00098012104F0FFF8044664B12646C2
:102BC0002878C04380071ED4686F062819D2DFE832
:102BD00000F0160C11161616AA6FD9F8001021F085
:102BE00038011143C9F80010EAE70198012104F007
:102BF00053F803E00098012104F0DEF804467CB1AC
:102C000000E0012426462878C04340071FD4D5F8A9
:102C10009000062819D2DFE800F0160C11161616DF
:102C20006A6FD9F8001021F007011143C9F80010AC
:102C3000E9E70198012104F02FF803E00098012151
:102C400004F0BAF80446A4B100E00124264628782E
:102C5000C04380062BD4D5F88C00B0F1405F24D05F
:102C600011DC10B3B0F1805F15D0B0F1005F10D16E
:102C700016E0D5F89020D8F8001021F00701114394
:102C8000C8F80010E3E7B0F1804F0ED0B0F1A04FCC
:102C90000BD001240AE00198002103F0FDFF03E0BE
:102CA0000098022104F088F8044694B1264628785A
:102CB000C04340062BD4D5F89800B0F5406F24D01F
:102CC00011DC10B3B0F5806F15D0B0F5006F10D1E6
:102CD00016E0D5F88C20D9F8001021F0E04111431E
:102CE000C9F80010E3E7B0F5805F0ED0B0F5A05F43
:102CF0000BD001240AE00198002103F0CDFF03E08E
:102D00000098022104F058F8044694B12646287829
:102D1000C04300062BD4D5F89C00B0F5C04F24D09A
:102D200011DC10B3B0F5005F15D0B0F5804F10D1B5
:102D300016E0D5F89820D8F8001021F4E05111439E
:102D4000C8F80010E3E7B0F5004F0ED0B0F5204F03
:102D50000BD001240AE00198002103F09DFF03E05D
:102D60000098022104F028F8044654B12646287839
:102D7000C04300071ED4D5F88000B0F5805F0AD0AC
:102D80000FE0D5F89C20D8F8001021F460411143E1
:102D9000C8F80010EBE70098022104F00DF800B12C
:102DA0000126D5F88020D9F8001021F440511143B4
:102DB000C9F800102878C043C00613D4D5F8940091
:102DC000B0F5807F05D10098022103F0F5FF00B136
:102DD0000126D5F89420D8F8001021F44071114351
:102DE000C8F800102868C043000316D4D5F8A00026
:102DF00038B1B0F5803F09D0B0F5003F0BD00124C9
:102E00000AE00198002103F047FF03E00098022147
:102E100003F0D2FF04468CB126462868C043400325
:102E200022D4D5F88400B0F5801F11D0B0F5001F72
:102E300013D0B0F5401F15D0012414E0D5F8A02020
:102E4000D8F8001021F440311143C8F80010E4E72D
:102E5000386840F40030386004E00098012103F045
:102E6000ABFF04465CB126462868C043C0031CD4AF
:102E7000286D70B1B0F5803F10D0012414E0D5F872
:102E80008420D9F8001021F440111143C9F8001032
:102E9000EAE7386840F40030386004E00198022125
:102EA00003F0FAFE0446DCB126462868C0438000E1
:102EB00005D40098022103F07FFF00B101262868A5
:102EC000C04380031BD4E86FB8B1B0F5807F10D049
:102ED000B0F5007F11D0B0F5407F0ED001240DE099
:102EE0002A6DDBF8001021F480311143CBF800107B
:102EF000DBE7386840F4003038607CB32646286849
:102F0000C043C00207D42A6FDAF8001021F0004154
:102F10001143CAF800102868C043800207D4AA6E83
:102F2000DAF8001021F080711143CAF80010286807
:102F3000C043400009D40748016821F40041016002
:102F40000168D5F8B420114301602868C04306E049
:102F50005444025810440258CFFFFF001DE007D42C
:102F60006A6DDBF8001021F040511143CBF80010DE
:102F70002868C043000208D4D5F88820D9F800108A
:102F800021F440011143C9F8001028790024C043FE
:102F900000F00100204309D00EE0EA6FD9F80010DC
:102FA00021F440711143C9F80010A8E701980021ED
:102FB00003F072FE00B106462879C04300F002001B
:102FC000204305D10198012103F066FE00B10646B9
:102FD0002879C04300F00400204305D10198022164
:102FE00003F05AFE00B106462879C04300F00800FD
:102FF000204305D10098002103F0DEFE00B1064613
:103000002879C04300F01000204305D10098012129
:1030100003F0D2FE00B106462879C04300F020003C
:10302000044304D10098022103F0C6FE00B916B192
:103030000120BDE8FE8F0020FBE700002DE9F05FD6
:1030400004000F467ED0DFF83882D8F8000000F088
:103050000F00B8420CD2D8F8001021F00F0139430C
:10306000C8F80010D8F8000000F00F00B84269D18D
:103070002078844D40070AD52069296801F0700145
:10308000884204D9296821F0700101432960207821
:103090007C4E361D00070AD56069316801F0700169
:1030A000884204D9316821F07001014331602078F1
:1030B000C0060AD5A069316801F4E061884204D9EC
:1030C000316821F4E061014331602078DFF8B4B168
:1030D00080060BF1080B0CD5E1695846DBF800209F
:1030E00002F07002914204D9026822F070020A4391
:1030F0000260207880070AD5E068296801F00F0196
:10310000884204D9296821F00F0101432960207801
:10311000C0073ED05B49A2682868183920F4706067
:10312000104328606068022818D0032819D0096865
:10313000012819D0490700294ADADFF848A1AAF185
:10314000080A00E044E0DAF8002022F00702024317
:10315000CAF80020FEF72EFC814612E009688903B8
:10316000E9E709688901E6E7C905E4E7FEF722FC1B
:10317000A0EB090141F28830814202D90320BDE869
:10318000F09F6168DAF8000000F03800B0EBC10F82
:10319000ECD1207880070AD5E068296801F00F019A
:1031A000884204D2296821F00F0101432960D8F830
:1031B0000010404601F00F01B9420BD9016821F01F
:1031C0000F0139430160006800F00F00B84201D0E0
:1031D0000120D4E7207840070AD52069296801F04A
:1031E0007001884204D2296821F0700101432960EE
:1031F000207800070AD56069316801F070018842C3
:1032000004D2316821F07001014331602078C0069A
:103210000AD5A069316801F4E061884204D23168BE
:1032200021F4E06101433160207880060CD5E1692A
:103230005846DBF8002002F07002914204D2026886
:1032400022F070020A43026000F088F80E492A68F2
:103250002B68C2F3032203F00F038A5CC95C02F0FF
:103260001F0201F01F01D040084A20FA01F111604D
:103270000749086007480068BDE8F05FFEF7D6BB65
:103280000020005218440258B8BD000890000020E9
:103290008C0000208400002070B5144C3F22026096
:1032A000124A24680832131D114D04F007044460CB
:1032B00016681C1D06F470668660166806F00F0618
:1032C000C660126802F0700202611A6802F07002B1
:1032D00042611A6802F4E0628261226802F07002C0
:1032E000C261286800F00F00086070BD10440258E9
:1032F0000020005230B500F031F80B4A0B490C4B5E
:1033000015681468C5F3032204F00F048A5C095D94
:1033100002F01F0201F01F01D040064A20FA01F11D
:1033200019601060084630BD18440258B8BD000846
:10333000900000208C00002000B5FFF7DBFF05495E
:103340000968054AC1F30221515C01F01F01C84020
:1033500000BD00001C440258B8BD0008454970B5C6
:1033600045480968434B103B11F0380208D0011161
:10337000082A03D0102A0BD0182A0BD0084670BD9B
:1033800019688906FBD51968C1F3C101C84070BD31
:103390003A4870BD3749374D18310C1D24350A683D
:1033A000096826682D6802F0030406F00102C1F3E3
:1033B0000511C5F3CC0515FB02F200EE102AB8EE9C
:1033C000400AE9B32F4ADFED2E0AB7EE001A6CB1BE
:1033D000DFED2D1A012C01D0022C43D002EE101A81
:1033E0001068F8EE422A81EEA22A1EE01C68A406AC
:1033F00011D51B6801EE901A1168C3F3C103F8EEF2
:10340000612AD84001EE900AC1F30800F8EE611A73
:1034100081EEA22A0BE001EE901ADFED1C2A00BF1C
:10342000F8EE611A106882EEA12AC0F3080001EEDE
:10343000900AF8EE611A40EE201A31EE810A00E09F
:1034400015E022EE000A1068C0F34620401C00EE92
:10345000900AF8EE600A80EE201ABCEEC10A10EE67
:10346000100A70BD01EE901ADFED092AD8E700209E
:1034700070BD0000104402580090D00300366E0169
:1034800000000039304402580024744A0024744C6F
:10349000001BB74B2DE9F05F04007DD0FF4F207873
:1034A000FE4D1837DFF8F483103DC00748D0D8F838
:1034B0000000396800F03800102815D0182803D112
:1034C00001F0030002280FD06068B0F5803F12D0F1
:1034D00010B1B0F5A02F18D0286820F480302860F3
:1034E000286820F4802009E02868800328D56068D7
:1034F0000028D2D024E0286840F48030286060683A
:1035000088B1FEF757FA064609E0286840F48020A3
:103510002860F0E7FEF74EFA801B64287ED8286802
:103520008003F7D50CE0FEF745FA064605E000BF3C
:10353000FEF740FA801B6428F0D828688003F7D48F
:103540002078800756D5D8F80000DFF85093396806
:1035500010F03800A9F10C090ED0182801D1880705
:103560000AD0E068A8B3296821F019010143296055
:10357000FEF720FA064628E02868400702D5E068F2
:1035800000288AD0E168286820F0190008432860E4
:10359000FEF710FA064606E0D2E000BFFEF70AFA90
:1035A000801B0228BAD828684007F7D5217CD9F8B3
:1035B000002022F0FE4242EA0161C9F8001019E041
:1035C000FEF7F8F9801B0228A8D828684007F7D52D
:1035D000ECE7FFE7286820F001002860FEF7EAF931
:1035E000064604E0FEF7E6F9801B022896D8286814
:1035F0004007F7D42078C00646D5D8F80000DFF899
:103600009C92396800F03800A9F10409082812D00A
:10361000182805D101F00300012800E0CEE00AD00F
:10362000E0690028286820D040F080002860FEF77C
:10363000C1F9064615E02868C00502D5E069802872
:103640007ED194F82010D9F8002022F07C5242EA72
:103650000161C9F8001017E0FEF7ACF9801B0228E1
:10366000A0D82868C005F7D5EBE720F080002860D7
:10367000FEF7A0F9064604E0FEF79CF9801B02283D
:1036800090D82868C005F7D42078000729D583484A
:103690006169643000298146016811D041F001015F
:1036A0000160FEF787F9064605E000BFFEF782F9E4
:1036B000801B022888D8D9F800008007F6D510E0D2
:1036C00021F001010160FEF775F9064605E000BF33
:1036D000FEF770F9801B022870D8D9F80000800727
:1036E000F6D42078800623D5A0690028286810D059
:1036F00040F480502860FEF75DF9064605E000BF03
:10370000FEF758F9801B022858D828688004F7D59E
:103710000EE020F480502860FEF74CF9064604E0E5
:10372000FEF748F9801B022848D828688004F7D49F
:103730002078400751D5DFF86891D9F8001000E0F3
:1037400015E141F48071C9F80010FEF733F906461F
:1037500005E000BFFEF72EF9801B64282ED8D9F8AB
:103760000000C005F6D54D4EA068603601280AD08D
:1037700008B1052813D0306820F0010030603068AF
:1037800020F0040002E0306840F001003060A068E2
:1037900041F2883A98B1FEF70DF981460AE03068A7
:1037A00040F004003060EEE7FEF704F9A0EB0901F9
:1037B000514503D830688007F6D50EE072E0FEF779
:1037C000F9F8814606E000BFFEF7F4F8A0EB090126
:1037D000514567D830688007F6D4606A00287CD0ED
:1037E000DFF8B8A0D8F800100AF1200A4FF6F87BED
:1037F0000AF10408C1F3C2010329AAF104096DD03A
:103800000228286820F08070286003D0FEF7D2F8E4
:10381000044681E0FEF7CEF8064604E0FEF7CAF85B
:10382000801B022875D828688001F7D4E26A40F22C
:10383000F331386854F8283F884340EA02101843AF
:103840003860217B4FF4FE0C22894FF0FE47208A1E
:103850004902267D521E401EA1F5007189B2C2F3B5
:1038600008021143761E0CEA00400143484607EA6D
:1038700006621143CAF80010D9F8001021F00101C6
:10388000C9F80010D8F80030266A23EA0B0343EA8F
:10389000C601C8F80010D9F8001004E0104402581E
:1038A0000048025835E0A26921F00C011143C9F823
:1038B00000100168E26921F0020111430160016812
:1038C00041F480310160016841F400310160016818
:1038D00041F480210160016801E06CE020E041F0EA
:1038E00001010160286840F080702860FEF762F8EE
:1038F000044604E0FEF75EF8001B022809D8286899
:103900008001F7D557E000BFFEF754F8001B0228EE
:1039100002D90320BDE8F09F28688001F4D44AE072
:1039200039680128DAF8000021D0A26A01F0030307
:1039300093421CD1E26AC1F305118A4217D1216B6F
:10394000C0F30802491E8A4211D1616BC0F34622BE
:10395000491E91420BD1A16BC0F30642491E914210
:1039600005D1E16BC0F30660491E814201D0012000
:10397000D0E7A16C4646D8F80000C0F3CC008142E5
:1039800019D0D9F800004D4620F00100C9F8000018
:10399000FEF710F84FEA0007FEF70CF8B842FBD02C
:1039A000A26C306820EA0B0040EAC2003060286850
:1039B00040F0010028600020ACE770472DE9F0419D
:1039C00004460068002102694369876894F88160B1
:1039D00002EA03055FEA035C0AD5120708D581698C
:1039E00041F400618161204600F04DFABDE8F081AC
:1039F00015F0600F08D1680706D5616F204688472B
:103A0000216F20468847012105F04100012805D19A
:103A1000680703D4216F20468847012105F0220062
:103A2000022806D1680704D4616F2046BDE8F04142
:103A300008470029DAD128074FF0010859D5206836
:103A4000816941F0080181612068816941F01001BC
:103A500081612068816941F40061816120680169A8
:103A600021F0080101612068806810F4404F1ED0E9
:103A700021E0E0680F2806D92068616E006B0860BD
:103A8000606E001D0DE0616E0728206804D9008E6D
:103A90000880606E801C04E090F830000870606E52
:103AA000401C6066B4F86A00401EA4F86A00B4F8CE
:103AB0006A000028DDD1204603F014FA84F88180E2
:103AC000D4F8840018B12046FFF777FF8EE7052E63
:103AD00007D0042E09D0032E88D1204600F007FB22
:103AE00084E7204600F004FB80E7204600F0CAF996
:103AF0007CE715F4587FE9D068060AD5D4F884002D
:103B000040F00400C4F884002068816941F040015D
:103B10008161A8050AD5D4F8840040F00100C4F8FA
:103B200084002068816941F400718161E8050AD54B
:103B3000D4F8840040F00800C4F88400206881694B
:103B400041F480718161A8060AD5D4F8840040F060
:103B50008000C4F884002068816941F020018161FF
:103B6000D4F884000028B1D0206840F26B32C7F34B
:103B700081310368032923F0010101602068016994
:103B800021EA0201016102D084F881809BE720686C
:103B9000104D816821F440418160E06F50B10565AE
:103BA000E06FFCF73FFF28B1D4F8840040F04000FC
:103BB000C4F88400A06F002888D00565A06FFCF7CA
:103BC00031FF00288CD0D4F8840040F04000C4F8C5
:103BD00084000BE7A16F00082DE9F047040029D00D
:103BE000594A4FF000092068584B594D9042C4F88B
:103BF000289006D0984204D0A84202D0E1680F294C
:103C000018D8E1684FF0010AE76B0831C9080AEBE0
:103C100057167143904205D0984203D0A84201D074
:103C2000082907D8904203D0984201D0A84204D175
:103C3000102902D90120BDE8F08794F8810020B94D
:103C4000204684F8809000F085F8022084F88100F6
:103C50002068016821F0010101602068A169826883
:103C6000B1F1806F02F4F81110D16268B2F5800FE3
:103C700001D01AB10AE0A26B22B107E0A26BB2F147
:103C8000805F03D1026842F48052026060684002A3
:103C900009D5E068072806D32068236D026822F45E
:103CA00080721A4303E02068026822F48072026086
:103CB000A66AE069E26B25683043E3680A43104373
:103CC0001843A860D4E90D02D4E90581636A256927
:103CD0001843D4F820C00A43266810432843A56D32
:103CE000D4E90172D4E9123140EA080040EA0C003C
:103CF00038430843104318432843F060606868B9AC
:103D00002068816821F4C05141F40061816020681D
:103D1000816821F4C06141F4806181602068016D97
:103D200021F0010101656068400206D52068626DDE
:103D3000C16821F000411143C160C4F8849084F847
:103D400081A0002077E700000030014000380040EB
:103D5000003C00402DE9F041B4B0074614212EA8E4
:103D6000FCF749FBB8216846FCF745FB3F4938683A
:103D7000884277D18114002017900446CDE90010C5
:103D80006846FEF7BDFC08B1FCF738FE384801680C
:103D900041F480410160006800F480403390344871
:103DA0000838016841F004010160016801F0040174
:103DB0003391016841F00201016000680225032689
:103DC0004FF0050800F002000621CDE92E15CDE9DF
:103DD000328028482EA9CDE93046FDF7D7FC2903CB
:103DE000254830AACDE92E152EA982E85001FDF70D
:103DF000CDFC224E4FF480682149272230463160A5
:103E00004FF44031C6E90124C6E903487461B46146
:103E1000C6E907417462FDF7BBFA08B1FCF7EEFD95
:103E2000164D4023164928227835FE671831B763AE
:103E300002C5D902281F85E81C012C616C61C5E907
:103E400006412C622D1FFDF7A3FA08B1FCF7D6FD41
:103E5000BD6700220621AF632420FDF797FE2420D2
:103E6000FDF786FE34B0BDE8F08100000038004068
:103E7000E84402580008025800040258E89500205F
:103E800010000240704770472DE9FF4F83B090F853
:103E9000801004461D4600209346109F0129019082
:103EA0000ED04FF0010A84F880A0FDF783FD94F84E
:103EB0008110804600202E46012905D0022133E0E2
:103EC000022007B0BDE8F08F049961B3BBF1000F89
:103ED00029D045B30521814684F88110C4F88400B7
:103EE000C4F864B0A4F86A50A4F868500499E16575
:103EF000A4F86250A4F86050206760672068C16829
:103F000021F4C021C160206841686FF30F0129438B
:103F100041602068016841F0010101606068B0F50E
:103F2000800F05D009E0012184F880000846C8E729
:103F30002068016841F400710160E0680F2830D802
:103F400041E02068416989070DD565B1E16D0968D7
:103F50000162E06D001DE065B4F86200401EA4F847
:103F60006200B4F8625048F20802206841691142C8
:103F70000DD066B1006B616E0860606E001D6066FA
:103F8000B4F86A00401EA4F86A00B4F86A60FDF74D
:103F900011FDA0EB0800B84202D3781C01D004E068
:103FA0001FB155EA0600CCD175E0204602F09AFF19
:103FB000D4F8842084F8809042F48070C4F884009F
:103FC00084F881A08FE007282ED861E0206841693D
:103FD00089070DD565B1E16D09880184E06D801C0C
:103FE000E065B4F86200401EA4F86200B4F86250C4
:103FF00020684169C9070DD066B1008E616E0880E6
:10400000606E801C6066B4F86A00401EA4F86A0006
:10401000B4F86A60FDF7CEFCA0EB0800B84202D30A
:10402000781C01D052E08FB355EA0600CED132E0C1
:104030002068416989070ED56DB1E16D097880F876
:104040002010E06D401CE065B4F86200401EA4F84A
:104050006200B4F8625020684169C9070ED06EB1A1
:1040600090F83000616E0870606E401C6066B4F8B5
:104070006A00401EA4F86A00B4F86A60FDF79AFC72
:10408000A0EB0800B84202D3781C01D01EE0EFB1CB
:1040900055EA0600CCD100223B4608212046CDF847
:1040A000008002F08BFF28B1D4F8840040F020009B
:1040B000C4F88400204602F015FF84F881A0D4F8EB
:1040C000841084F8809081B10120FAE6204602F045
:1040D00009FFD4F8842084F8809042F48071C4F8F9
:1040E000841084F881A00320EBE60198E9E670478C
:1040F0007047704770477047F0B590F83C20012A30
:1041000041D0224E012480F83C40022280F83D201C
:1041100002681F4D5368B242D2F808C001D0AA42CB
:1041200003D14F6823F470033B430F6823F07003FF
:104130001F4357600268B24219D0B2F1804F16D0C7
:10414000144B9A4213D0144B9A4210D0134B9A42FC
:104150000DD0AA420BD0124B9A4208D0114B9A4272
:1041600005D0114B9A4202D0104B9A4204D1896873
:104170002CF0800319439160002180F83D4080F8C5
:104180003C100846F0BD0220F0BD000000000140D8
:10419000000401400004004000080040000C004002
:1041A000001800400040014000E0004000E40040F2
:1041B00010B5040003D094F83D0010B107E00120D1
:1041C00010BD002084F83C00204600F022F80220B8
:1041D00084F83D002068211D02F0E2FF012084F8F0
:1041E000480084F83E0084F83F0084F8400084F8DA
:1041F000410084F8420084F8430084F8440084F8C5
:10420000450084F8460084F8470084F83D0000200B
:1042100010BD704790F83D10012901D00120704772
:104220001A4A022180F83D100168CB6843F001036F
:10423000CB60006890421AD0B0F1804F17D014497B
:10424000884214D01349884211D0134988420ED0B5
:10425000124988420BD01249884208D0114988423D
:1042600005D01149884202D01049884207D181689F
:104270000F4A1140062906D0B1F5803F03D00168EE
:1042800041F0010101600020704700000000014082
:104290000004004000080040000C00400004014001
:1042A000001800400040014000E0004000E40040F1
:1042B00007000100704770B50446006800250169D9
:1042C000C943890715D4C168C943890711D4EA1EB7
:1042D000026101212177206880698007204602D091
:1042E000FFF7E8FF04E000F0CFF8204600F0A4F963
:1042F000257720680169C943490717D4C168C943B4
:10430000490713D402216FF004020261217720686B
:10431000806910F4407F204602D0FFF7CBFF04E015
:1043200000F0B2F8204600F087F92577206801698F
:10433000C943090716D4C168C943090712D4042127
:104340006FF00802026121772068C069800720466B
:1043500002D0FFF7AFFF04E000F096F8204600F02F
:104360006BF9257720680169C943C90617D4C1686C
:10437000C943C90613D408216FF0100202612177E6
:104380002068C06910F4407F204602D0FFF792FFFA
:1043900004E000F079F8204600F04EF92577206817
:1043A0000169C943C90708D1C168C943C90704D114
:1043B000891E0161204600F0D3F920680169C943D4
:1043C000090609D4C168C943090605D46FF0800104
:1043D00001612046FFF78EFE20680169C943C905C7
:1043E00009D4C168C943090605D46FF4807101611D
:1043F0002046FFF77EFE20680169C943490609D4BB
:10440000C168C943490605D46FF0400101612046E7
:1044100000F0B0F920680169C94389060BD4C1686E
:10442000C943890607D46FF0200101612046BDE829
:104430007040FFF760BE70BD10B586B00446142111
:104440006846FBF7D8FF0D492068884213D10C4815
:10445000016841F0020101600068002100F00200E3
:10446000059002200090CDE90101CDE90310054837
:104470006946FDF78BF906B010BD0000000400404E
:10448000E044025800040258704770B5044690F8A2
:104490003C0000260D4601280BD0012084F83C008A
:1044A0000C2A4AD007DC82B1042A20D0082A06D17F
:1044B00031E0022070BD102A53D0142A63D00126A7
:1044C000002084F83C00304670BD206802F0E2FE17
:1044D0002068816941F0080181612068816921F0CB
:1044E0000401816120682A698169114311E0206813
:1044F00002F024FF2068816941F400618161206835
:10450000816921F48061816120682969826942EAB8
:1045100001218161D4E7206802F05CFF2068C16955
:1045200041F00801C1612068C16921F00401C16145
:1045300020682A69C169114311E0206802F096FFE2
:104540002068C16941F40061C1612068C16921F43A
:104550008061C16120682969C26942EA0121C161A3
:10456000AEE7206802F0BEFF2068416D41F008010F
:1045700041652068416D21F00401416520682A6988
:10458000416D114311E0206802F0E6FF2068416DA3
:1045900041F4006141652068416D21F4806141650D
:1045A00020682969426D42EA0121416588E710B51A
:1045B000040003D094F83D0010B107E0012010BDC5
:1045C000002084F83C00204600F022F8022084F805
:1045D0003D002068211D02F0E3FD012084F8480021
:1045E00084F83E0084F83F0084F8400084F84100DD
:1045F00084F8420084F8430084F8440084F84500BD
:1046000084F8460084F8470084F83D00002010BD7F
:1046100008B500680649884208D10648016841F09B
:1046200002010160006800F00200009008BD000077
:1046300000040040E84402587047000030B50446CA
:104640004FF0020269B1042912D0082917D00C29B1
:104650001CD0102921D094F84300012824D0012037
:1046600030BD94F83E000128F9D184F83E201DE0C9
:1046700094F83F000128F2D184F83F2016E094F826
:1046800040000128EBD184F840200FE094F841006D
:104690000128E4D184F8412008E094F84200012880
:1046A000DDD184F8422001E084F843200122206813
:1046B00002F0E2FD1E4920681E4A1F4B884209D0C5
:1046C000904207D0984205D01C4DA84202D01C4D04
:1046D000A84203D1456C45F40045456420688842F2
:1046E00018D0B0F1804F15D01649884212D0164923
:1046F00088420FD0154988420CD090420AD0144904
:10470000884207D0984205D01249884202D0124907
:10471000884207D18168114A1140062906D0B1F5B7
:10472000803F03D0016841F001010160002030BDED
:1047300000000140000401400040014000440140ED
:10474000004801400004004000080040000C004008
:104750000018004000E0004000E4004007000100B5
:1047600000680349884201D1FDF72AB9704700006B
:1047700000000140704700002DE9F0410446414D22
:1047800000202074A27B288861684243D4F8F4009A
:10479000FBF718FEA17B288841436068FBF72BFEDE
:1047A000A07B2A8810FB00F1D4F818015143FBF7D5
:1047B00022FE217BA27B2B88D4F80C0111FB02F195
:1047C0005943FBF718FE00202CE000BFD4F8F4108A
:1047D00001EB800292ED000AB5EEC00AF1EE10FA8C
:1047E0001ED0237C6FF0030201EB830181ED000AF0
:1047F000237C616AC854D4E90515237B267CD4F850
:104800000C71095C13FB061105EB800302EB8101BF
:1048100093ED000A394481ED000A217C491C217482
:10482000401CC0B2A17B8142D0D8002011E000BF63
:10483000636A10FB0105E269411CD4F818611B5C36
:10484000C8B202EB830106EB850291ED000A82ED0E
:10485000000A217C8142EBD8A4F88210CAB2A4F8E5
:104860009010A4F89210207BA4F87820A4F89A1055
:10487000A4F84810A4F87A00A4F88000A4F89800DE
:10488000BDE8F081C0000020FEE70000D0F8EC1089
:1048900085B091ED000A8DED000A91ED010A8DEDD4
:1048A000010A91ED020A8DED020A91ED030A002141
:1048B0008DED030A9DED000ADDED010A20EE000AF0
:1048C00000EEA00ADDED020A00EEA00ADDED030A0B
:1048D00000EEA00AF7EE000ACDED040AF1EEC00AE0
:1048E0009DED040A80EE201A8DED041AD0F8EC201C
:1048F0004B1CDDED040A02EB8102D9B292ED000AF5
:10490000042920EE200A82ED000AEFD34649474AE7
:10491000F6EE000ABEEE000A9FED451AD1ED6F1AC1
:104920009DED012AD0F8003161EE821A61EEA01AE5
:10493000C3ED041AD1ED6F1A9DED022AD0F80031B3
:1049400061EE821A61EEA01AC3ED051AD1ED6F1A5D
:104950009DED002AD0F8003161EE821A61EE801AD6
:10496000C3ED0A1AD1ED6F1A9DED032AD0F800317C
:1049700061EE821A61EEA01AC3ED0B1AD1ED6F1A27
:104980009DED032AD0F8003161EE821A61EE801AA3
:10499000C3ED101AD1ED6F1A9DED002AD0F8003149
:1049A00061EE821A61EE801AC3ED111AD1ED6F1A11
:1049B0009DED022AD0F8003161EE821A61EEA00A64
:1049C000C3ED160AD1ED6F0ADDED011AD0F8003102
:1049D00060EEA10A20EE800A83ED170AD0F8F830C5
:1049E000D1ED740A93ED1C0AC0EE201AC3ED1C1A17
:1049F000D0F8F830D1ED740A93ED230AC0EE201AF6
:104A0000C3ED231AD0F8F8100B6F934201DD81ED4E
:104A10001C1AD0F8F800D0F88C10914201DD80ED1E
:104A2000231A05B070470000E84B002000401C46E8
:104A300000401C4670B5344C0125DFED342A04F5E6
:104A4000D87C00202DED028B0146024625700346DE
:104A5000C4ED732AB7EE008A8CEC030A84F838019F
:104A6000C4F84001D03411EE900AB0F17E5F04F139
:104A7000740080E80E0084ED3B2AA4F1D00401DD2F
:104A8000F0EE481A032300220621201DC4ED741AFB
:104A900000F00AFE1E4B01221146A3F1080005F0AA
:104AA000FAF8D4F8EC0090229FED1A0A1E4980ED26
:104AB000008AD4F8EC0080ED010AD4F8EC0080ED17
:104AC000020AD4F8EC0080ED030A1348C4F8D000C1
:104AD0001248C4F8D4001248C4F8D8001148C4F8E9
:104AE000DC0084F82E5084F82F50D4F80401883468
:104AF000FBF768FC606F90220C49BDEC028BBDE8AF
:104B00007040FBF75FBC0000E84B002077CC2B32F5
:104B1000B04D002000000000314B00088D48000817
:104B2000654B000835500008C8BD0008C4000020CF
:104B300010B504460948902254F8F81FFBF742FCD0
:104B400007484822616AFBF73DFC05484822616935
:104B5000BDE810404830FBF735BC0000C400002021
:104B6000C84D00201FB50446B0EE000A54F8EC0F03
:104B7000D0ED000A60EE800ACDED000AD0ED010A0A
:104B800060EE800ACDED010AD0ED020A60EE800AE7
:104B9000CDED030AD0ED030A284820EE800A8DED02
:104BA000020A14F8DE1C14F8E03C0288206A11FBAB
:104BB00003F15143FBF71FFC9DED030A206AB1EEA0
:104BC000400A80ED000A206ADDED020AC0ED010A0C
:104BD000DDED000A206AF1EE600AC0ED020A206AEB
:104BE000DDED010AC0ED030A206ADDED010AC0ED2A
:104BF000060A206ADDED000AC0ED070A206ADDED35
:104C0000020AC0ED080A206ADDED030AC0ED090AB8
:104C1000206ADDED000AC0ED0C0ADDED010A206A14
:104C2000F1EE600AC0ED0D0A206A80ED0E0A206ADE
:104C30009DED020A80ED0F0A1FBD0000C00000209C
:104C400010B5F14C9022F1492DED048BF0EE619AF4
:104C5000B6EE008AD4ED581A84B0F0EE628A30EED7
:104C6000610AB0EE429A84ED5B0A60EE081A94ED98
:104C7000590A30EEC00A84ED5C0A60EE080A94ED31
:104C80005A0A31EE400A84ED5D0A20EE081A94EDCE
:104C90006F0A61EE801A60EE800A21EE000ACDED07
:104CA000001ACDED010A8DED020AD4F8040104F5D5
:104CB0008274FBF787FB9DED000A2068B1EE400A85
:104CC00080ED010ADDED010A2068B1EE601A80ED89
:104CD000021ADDED020A2068F1EE600AC0ED030A57
:104CE0002068DDED001AC0ED061A2068DDED021A1D
:104CF000C0ED081A206880ED091A20689DED011AA0
:104D000080ED0C1A2068C0ED0D0A2068DDED000A68
:104D1000C0ED0F0A2068DDED020AC0ED120A20681E
:104D2000DDED010AC0ED130A206880ED140AD4E914
:104D30001101A4F5827450EA01020AD1401CC4EDAD
:104D40005E9A41F1000184ED5F9AC4ED608AC4E986
:104D5000520194ED5E0AD4ED640A94ED6F1AF7EEF9
:104D6000002A60EE201A31EE200A21EE292A21EED7
:104D7000093A21EE284AC1EE803AA549C2EE001A4E
:104D800083EE001A73EEA11AC4ED5E1AD4ED5F3AF9
:104D900021EEA12A63EEA03A84EE003A83EE804A27
:104DA00034EE011A84ED5F1A01EE012A94ED601AC7
:104DB00061EE200A80EE801A31EE030A84ED600A6B
:104DC00000EE002AB1EEC20A84ED660AC2EE800A45
:104DD000CDED000AA06821EEA00A80ED000A94ED56
:104DE0005F0ADDED000AA06820EE200A80ED010ACE
:104DF00094ED600ADDED000AA06820EE200A80ED47
:104E0000020AD4ED5B0A94ED5C1A94ED5D0A60EE43
:104E1000A00A41EE010A40EE000AB1EEE00A10EEEF
:104E2000100A84ED650A884209DA7A49D4F89801B3
:104E3000884204DD7849884201DA012000E0002040
:104E400084F8390194ED6C0AD4ED6F0AD4F8180196
:104E500020EE200A80ED000A94ED6C0AD4ED6F0A72
:104E6000D4F8180120EE200A80ED070A94ED6C0AB0
:104E7000D4ED6F0AD4F8180120EE200A80ED0E0A56
:104E800094ED6C0AD4ED6F0AD4F8180120EE200AD4
:104E900080ED150A94ED6D0AD4ED6F0AD4F818016F
:104EA00020EE200A80ED1C0A94ED6D0AD4ED6F0A05
:104EB000D4F8180120EE200A80ED230AD4F81C0152
:104EC00094ED6E0A80ED000AD4F81C0194ED6E0A90
:104ED00080ED040AD4F81C0194ED6E0A80ED080AF6
:104EE000201D00F0E7FE6068F0EE480A90ED000A31
:104EF00084ED540AD0ED011AC4ED551A90ED021A52
:104F000041EEE10A84ED561A20EE210A90ED032AC3
:104F1000424884ED572A01EE020A41EE410A04F0AC
:104F200045FD94ED680ADFED3E8A20EE280A84ED07
:104F3000680A94ED550AD4ED571AD4ED540A94ED4D
:104F4000561A20EE210AF8EE001A00EEC10A20EEF1
:104F5000210A04F009F920EE280AF0EE480A2F4849
:104F600084ED690A94ED560AD4ED551A94ED571A5A
:104F700040EE400A21EE800A94ED542A083002EEF9
:104F8000010A41EE410A04F011FD94ED6A0A9FED19
:104F9000251A254920EE280A84ED6A0A6068D0EDBA
:104FA000040AC4ED580AD0ED050AC4ED590A84ED8F
:104FB0005A1AD4ED760A70EE600A10EE900A884212
:104FC00003DDB4F8D401401E07E010EE900A174943
:104FD000884204D9B4F8D401401CA4F8D401B4F92F
:104FE000D4019FED131A00EE900AF8EEE01AF0EEED
:104FF000400A41EE810AC4ED6B0A84ED760A04B0E2
:10500000BDEC048B10BD0000E84B0020C8BD0008BB
:105010009A99993ECDCC1441CDCC2441884D0020A5
:10502000E12E65420000000000003443000034C35C
:105030000000B4432DE9F04F87B0044600F1800131
:1050400078300546049104F0A2FF84F8C80004F10A
:10505000A802B4F8780004F15801A4F8A800914619
:10506000B4F85A00A4F8AA002846059104F024FFD9
:1050700084F8C80004F1B002B4F8A8009046A4F87F
:10508000B000B4F88200A4F8B2004846049904F0D5
:1050900013FF84F8C80004F1A002B4F8900004F1F2
:1050A0009001A4F8A0001546B4F89200A4F8A2005C
:1050B000404604F0CBFD84F8C800B0344146284691
:1050C00004F0EEFD20760125E06B0026C94F90ED3F
:1050D000000A8DED000A90ED010A8DED010A90EDB8
:1050E000020A8DED020A90ED030A8DED030A34F8F1
:1050F000380C20816581DDED010A9DED031ADDED9F
:10510000021AB0EE000A60EE810A9DED001AE06F0F
:1051100041EE610A60EE800AC0ED000ADDED031A7F
:10512000E06FDDEC020A60EE810A9DED021A41EEAD
:10513000210A20EE800A80ED010A9DED000ADDEDD6
:10514000010AE06FB4F1B00420EE000A00EEE00ABC
:10515000DDED020A00EEE00ADDED030A00EEA00A32
:1051600080ED020AD4F82C0100EB860090ED000AD5
:10517000B0EEC00A04F028FD07EB8601701CC6B231
:10518000032E81ED610AEDD3B4F8480004F1C002AA
:1051900004F1B801A4F8C00004F1480092468B461F
:1051A000A4F8C25004F0CEFE84F8C8004A46B4F811
:1051B000C0005146A4F8A800404624F8AA5F04F0B5
:1051C0007BFEA0775946E581E08A2082504604F0B4
:1051D000DEFE894A4946A077584604F06DFEA07766
:1051E000AA3C97ED730AB6EE001AD7ED720A20EECC
:1051F000011AF4EEC10AF1EE10FA01D287F8385123
:105200000020F4EEC00AF1EE10FA33DD97F8381101
:1052100079B397F8391139B1D7E950124B1C42F1E3
:105220000001C7E9503102E00021C7E95011D7E978
:10523000502332260021B21A994102D287F8380150
:1052400036E06E4E227B30884243D4E93A01803406
:10525000FBF7B8F814F8740C338810FB00F2D4E9AB
:105260001E015A43FBF7AEF804F8545C07B0BDE8E2
:10527000F08FFFE79FED621A20EE011AF4EEC10AEB
:10528000F1EE10FA0DDD97F8381151B19FED5D1A6E
:1052900070EE600A20EE010A80EE801A87ED671A30
:1052A00003E0B7EE000A87ED670A0021C7E9501155
:1052B00084F82C004A46B4F85800B4F88210A4F8D8
:1052C000A800A4F8AA106C34DDE9041004F0F4FD81
:1052D00084F85C0004F12C026C3C41464846009284
:1052E00004F0EAFD84F8C80000200DE0D4F81C1199
:1052F000421CD7ED670A01EB8001D0B291ED000AA4
:1053000020EE200A81ED000AB4F89810B4F89A2033
:1053100051438142EADC04209FED3B0A5FF000012B
:1053200007EB800600EB4003D4F81C2196ED5D1AD4
:1053300003EB010C491CC1EE000A02EB8C02C9B25E
:1053400092ED001A032960EE810AC2ED000AEBD348
:10535000401CC0B20628E1D3B4F898005A46A4F81D
:10536000B8005146A4F8BA509834009804F0A4FD4F
:1053700084F83000983C97F8380158B39FED230A21
:105380009FED231A5FF00400D4F8BC10D7ED6F0A2C
:1053900001EB800160EE800AD1ED001AF4EEE01A14
:1053A000F1EE10FA01DDC1ED000AD4F8BC10D7ED22
:1053B0006F0A01EB800160EE810AD1ED001AF4EE74
:1053C000E01AF1EE10FA01D2C1ED000A401CC0B2A1
:1053D0000628D9D3D4F8BC0004F130029FED0D0AA1
:1053E000594680ED030A04F1380004F02FFC84F8DC
:1053F000C8003BE7E84B0020A84D0020C00000207B
:10540000CDCCCC3D6666663FDA0FC93F0AD7233C58
:105410000AD723BC0000000010B50E4C0E48D4ED96
:10542000010A94ED070A01F073FB0B4890ED080A9E
:10543000FCEEC00AB5EEC00AF1EE10FAC4ED040AA3
:1054400002D310EE900A01E00020206103490968B0
:10545000086410BDD801002070970020D896002065
:1054600000F006F800F03CF8012004F03BFFF9E7FB
:10547000DFED130ADFED112AF7EE001AB0EE602A15
:105480009FED101AB2EE040A10B5FFF7D3FA104AD6
:1054900000211048DFED0C0A9FED0C0A01F0CEFB55
:1054A0009FED0D0A01F03EF80C480C21FFF7C6F8FD
:1054B000FBF731F80028FBD110BD00000000000010
:1054C0006F12833A8096184B000048430000FA445C
:1054D000000200207097002000007A44D896002037
:1054E0002DE9F0415E495D4AA1F10C002DED028BE2
:1054F000FBF71EF8594C5A4F1C3C01269FED598A68
:10550000607850B96670F0EE481A97EC030AF0EE36
:10551000612AB0EE612A00F01DFE514D21780C3D4C
:105520000229A5F10C0002D0012942D06FE0D0ED94
:10553000000A95ED000A4C4930EE600A85ED000A3C
:10554000D5ED010A90ED011A70EEC10AC5ED010A10
:10555000D0ED021A95ED021A31EE611A85ED021AAC
:10556000F0EEC11A11EE900A884201DA85ED028A46
:1055700095ED021AD7EC031AFFF762FBB0EE483A3A
:10558000D7EC031AB0EE434AF0EE433A95EC030A27
:1055900001F066F800F0E6FFFBF732FA84ED090A45
:1055A000FBF734FA84ED080AFBF736FA84ED020AB9
:1055B0002DE0D5ED000A90ED000A70EE201AC0ED46
:1055C000001A90ED010AD5ED010A30EE201A80EDA7
:1055D000011AD5ED020A90ED020A70EE200AC0ED24
:1055E000020AE168491CE160B1F57A7F0FD302211C
:1055F0009FED1E0A81EE802AC1EE001A80ED002A7E
:1056000080EE801AC0ED011A80ED021A21700A2086
:105610006169B1FBF0F200FB1210B8B9FFF7FCFEB4
:1056200094ED070AD4ED010A30EE600AB0EEC00A2C
:1056300010EE100AB0F17C5F08DA207830B9A0696A
:10564000401CA061B0F5967F00D926706069401CAF
:105650006061BDEC028BBDE8F0810000F401002028
:10566000D097002000000000A69B443B00007A4435
:10567000F0B500230A251C463026372711E000BF6D
:10568000B5EB107F02D906EB107C01E007EB107C34
:1056900001F813C001EB430C00015B1C8CF80140C6
:1056A000DBB29342ECD3F0BD2DE9F047DFF818846C
:1056B0001E460423174608224FF000090D460446F3
:1056C000A8F80030A8F8022001734773867380F8A9
:1056D0001090304605F047FB31466061FAF78BFECB
:1056E000B8F80000704305F03EFBA061B8F8001068
:1056F0007143FAF780FEB8F80000704305F033FB01
:10570000E061B8F800107143FAF775FEB8F80000D0
:10571000684305F028FB2062B8F800106943FAF7E7
:105720006AFE304605F01FFB31466062FAF763FE01
:10573000B8F80000684305F016FB2060B8F80010C8
:105740006943FAF758FEB8F80000704305F00BFB08
:105750006060B8F800107143FAF74DFEB8F8000029
:10576000784305F000FBA060B8F800107943FAF721
:1057700042FEB8F80000684305F0F5FAC4F8E80006
:10578000B8F800106943FAF736FE217B0122D4F8FD
:10579000E83004F1300004F07EFAB8F80000684305
:1057A00005F0E1FAC4F8EC00B8F800106943FAF724
:1057B00022FE217B0122D4F8EC3004F1380004F001
:1057C0006AFA9FB1B8F80000784305F0CCFAC4F843
:1057D000F000B8F800107943FAF70DFE617B012262
:1057E000D4F8F03004F1400004F055FAB8F80000A5
:1057F000704305F0B8FAC4F8F400B8F8001071432B
:10580000FAF7F9FDA17B0122D4F8F43004F1480045
:1058100004F041FAB8F800006843684305F0A3FAC1
:10582000C4F8F800B8F8001069436943FAF7E3FDDB
:10583000217B04F15000D4F8F8300A4604F02BFA2A
:10584000B8F800006843684305F08DFAC4F8FC001E
:10585000B8F8001069436943FAF7CDFD217B04F1E4
:105860005800D4F8FC300A4604F015FAB8F80000E5
:105870006843684305F077FAC4F800018834B8F843
:1058800000006843684305F06EFAE067B8F800105E
:10589000A06F69436943FAF7AEFDB8F80010E06FF6
:1058A00069436943FAF7A7FD14F87C1CA4F12800AA
:1058B000A36F883C0A4604F0EEF9217B04F16800EE
:1058C000D4F804310A4604F0E6F9AFB1B8F80000A4
:1058D0006843784305F047FAC4F80801B8F80010A7
:1058E00069437943FAF787FD627B04F17000217BFD
:1058F000D4F8083104F0CFF9B8F8000047467043F7
:10590000684305F030FAC4F80C01943438886843D1
:10591000704305F028FAE0673988A06F7143694346
:10592000FAF769FD3988E06F69437143FAF763FD5F
:10593000A4F11C0014F8882C14F8861CA36F943C66
:1059400004F0A9F9A27B04F18000217BD4F8103186
:1059500004F0A1F938886843684305F004FAC4F8F4
:105960001401398869436943FAF745FD217B04F145
:105970008800D4F814310A4604F08DF93888704351
:10598000704305F0F0F9C4F8180139887143714388
:10599000FAF731FDA17B04F19000D4F818310A46E2
:1059A00004F079F938886843704305F0DCF9C4F8ED
:1059B0001C01398869437143FAF71DFDA27B04F18C
:1059C0009800217BD4F81C3104F065F9207B3988DC
:1059D00010FB00F0484305F0C6F9C4F82001217B14
:1059E0003A8811FB01F15143FAF705FD207B398814
:1059F00010FB00F0484305F0B6F9C4F82401217B00
:105A00003A8811FB01F15143FAF7F5FC207B398804
:105A100010FB00F0484305F0A6F9C4F82801217BEB
:105A20003A8811FB01F15143FAF7E5FC207B3988F4
:105A3000484305F098F9C4F82C01217B3A8851437A
:105A4000FAF7D9FC207B3988484305F08CF9C4F873
:105A500030013A88217BD4F82C015143FAF7CBFC72
:105A6000217B04F1A000D4F820310A4604F013F998
:105A7000217B04F1A800D4F824310A4604F00BF984
:105A8000217B04F1B000D4F828310A4604F003F970
:105A9000217B0122D4F82C3104F1B80004F0FBF88A
:105AA000217B0122D4F8303104F1C00004F0F3F876
:105AB00084F8289084F8299084F82A9084F82B9010
:105AC00084F82C90BDE8F087C000002070B5104D20
:105AD0000446C07B18B12046FEF74EFE0DE0A27BC7
